:10000000A81C0020B92D0000796900008D2D00008A
:100010008D2D00008D2D00008D2D000000000000B2
:100020000000000000000000000000002527000084
:100030008D2D000000000000DD2600008D2D000049
:10004000A1270000A1270000A1270000A127000090
:10005000A1270000A1270000A1270000A127000080
:10006000A1270000A1270000A1270000A127000070
:10007000A1270000A1270000A1270000A127000060
:10008000A1270000A1270000A1270000A127000050
:10009000A1270000A1270000A1270000A127000040
:1000A000A1270000A1270000A1270000A127000030
:1000B000A1270000A1270000A1270000A127000020
:1000C000A1270000A1270000A1270000A127000010
:1000D000A1270000A1270000A1270000A127000000
:1000E000A1270000A1270000A1270000A1270000F0
:1000F000A1270000A1270000A1270000A1270000E0
:1001000053B94AB9002908BF00281CBF4FF0FF317E
:100110004FF0FF3000F00CB8ADF1080C6DE904CEE3
:1001200000F008F8DDF804E0DDE9022304B07047D0
:10013000704700BF2DE9F04F07468C460846099EE0
:1001400015463C461946002B40F0C6808242B2FA62
:1001500082F746D94FB1C7F1200E24FA0EFE00FAFD
:1001600007F3BD404EEA030CBC404FEA15481FFAA6
:1001700085FEBCFBF8F9220C08FB19C309FB0EFA3B
:1001800042EA03439A4528D9EB1809F1FF3004D21B
:100190009A4502D9A9F102002B44A3EB0A03A4B2A9
:1001A000B3FBF8F208FB123302FB0EFE44EA0344F1
:1001B000A64514D92C1902F1FF3303D2A64501D963
:1001C000931E2C44A4EB0E0443EA00401EB1FC40F5
:1001D000002334607360BDE8F08F4846DDE71346C6
:1001E000F0E702B9FFDE87BB831A01214FEA154E03
:1001F000AAB2B3FBFEFC200C0EFB1C330CFB02F876
:1002000040EA0343984563D9EB180CF1FF3004D260
:10021000984502D9ACF102002B44A3EB0803A4B229
:10022000B3FBFEFC0EFB1C330CFB02F244EA03445E
:10023000A2424FD92C190CF1FF3304D2A24202D9A9
:10024000ACF102032C44A41ABEE7C7F1200C20FA3B
:100250000CF800FA07F324FA0CFCBD404CEA030248
:100260004FEA154EABB2B8FBFEFC110C0EFB1C8026
:100270000CFB03F941EA0040814504FA07F423D955
:1002800028180CF1FF3104D2814502D9ACF10201EA
:100290002844A0EB090092B2B0FBFEFC0EFB1C0050
:1002A0000CFB03F842EA004398450FD9EB180CF118
:1002B000FF3204D2984502D9ACF102022B44A3EBE1
:1002C000080342EA014191E76146E2E76246F6E748
:1002D0006046A2E76346B6E7834205D90EB1C6E998
:1002E00000700021084676E7B3FA83F181B98342B2
:1002F00001D3BA420AD8BC1A60EB030301209C4622
:10030000002E68D0C6E9004C002164E70846F7E7F4
:10031000C1F1200C8B4022FA0CF41C4302FA01F5C7
:1003200000FA01F327FA0CF220FA0CFB4FEA144909
:100330001343BBFBF9F81FFA84FE09FB18BB1A0C28
:1003400008FB0EFA42EA0B42924507FA01F73ED942
:10035000A21808F1FF3004D2924502D9A8F1020098
:100360002244A2EB0A029BB2B2FBF9F809FB182265
:1003700008FB0EFE43EA024296452AD9A21808F16C
:10038000FF3304D2964502D9A8F10203224443EA7E
:100390000040A0FB0593A2EB0E029A42CE4698467F
:1003A00002D306D14F4504D2B9EB050E63EB040826
:1003B000013886B1B7EB0E0362EB080707FA0CFCB5
:1003C000CB404CEA0303CF40C6E900379CE74046E8
:1003D000C7E74346DBE73146FDE610F8012B11F88D
:1003E000013B012A28BF9A42F7D0D01A7047034632
:1003F00013F8012B002AFBD1181A013870470000AE
:100400007FB50A4B0593022304930948002304AAED
:100410004FF4865106F058FA00F00CF800F024F87A
:1004200000214FF4004005F047FAF7E7D8760000C6
:100430003874000010B50A4804F0D0FB094A106077
:1004400060B102698168136823F080531360BDE8CE
:1004500010400B684FF420221C21184710BD00BF2C
:10046000F1760000400800200C4B1868026910B5B6
:100470000B4C12682378D20048BF83F001034BB1C4
:100480008368DB684FF080519847237883F001033D
:10049000237010BD83681B69F4E700BF400800208B
:1004A000D4010020F8B5404C00AF206806F08FFC66
:1004B000034600283DD122683C4915686C4688B047
:1004C0006A4602F1140005F037FE294602F11800D1
:1004D00005F032FE02211177354942F8101F3548E8
:1004E0004FF4D25106F0F0F9A5466FF00104324AFC
:1004F0003249B4FA84F388B05B0913706A4602F19A
:10050000140005F019FE02F11800214605F012FE54
:10051000194602F11C00042305F00CFE42F8103FBE
:10052000244800234FF4035106F0CEF92046BD467F
:10053000F8BD1422002104F10C0006F022FE04F1A3
:1005400020021F4962614FF41062C4E90112214682
:100550000123022540F20E4251F8040B2361A561EC
:10056000A283A37783681B6898476E4688B06A4663
:100570000446144902F1140005F0DEFD02F11800F2
:10058000294605F0D7FD042302F11C00214605F0A1
:10059000D1FD42F8103F074800234FF4035106F005
:1005A00093F9B546A3E700BF98000020117700003B
:1005B0000300000128740000781100203F7700003C
:1005C000000428402C7700002DE9F04F8DB01F4625
:1005D000169B0292009302F00403C2F3C20201933D
:1005E000531C820705460E46049340F01C82041DEE
:1005F000002840F01B8201F00706341DC6F10806F2
:100600004FF0000A4FF004087B1ECDF80CA05246B4
:100610005146C14605B127600498002807DCC84848
:100620008742C0F03981C748874280F035810298FF
:1006300010F0020E00F049814FF0010C601BBEF17A
:10064000000F00F02F81B0F5007FC0F02B816FF01C
:100650001500F9E039B9252840F03B8101214FF020
:100660000408C14635E12B2824D81F2801D80021D1
:100670002FE1A0F1200CBCF10B0FF8D80FF2040E03
:100680005EF82CF0D30800006F0600006F06000033
:10069000D30800006F0600006F0600006F06000020
:1006A0006F0600006F0600006F0600006308000080
:1006B000D3080000A0F12D0C5FFA8CFEBEF14D0FA7
:1006C000D5D8BCF14D0FD2D80FF2040E5EF82CF045
:1006D000D3080000D30800006F060000D308000014
:1006E000D3080000D3080000D3080000D30800009E
:1006F000D3080000D3080000D3080000D30800008E
:10070000D30800006F0600006F0600006F060000AF
:100710006F0600006F0600006F0600006F06000005
:10072000250800006F0600006F0600006F0600003D
:100730002508000025080000250800006F060000BD
:100740006F0600006F0600006F060000D30800006F
:100750006F0600006F0600006F0600006F060000C5
:100760006F0600006F0600006F0600006F060000B5
:100770006F0600006F0600006F0600000908000009
:100780006F0600006F0600006F0600006F06000095
:100790006F0600006F0600006F0600006F06000085
:1007A000250800006F060000090800000908000085
:1007B000250800002508000025080000D3080000D7
:1007C00009080000570800006F060000D308000069
:1007D0006F0600005D080000090800005D080000C9
:1007E0006F0600006F0600005D0800005F06000055
:1007F000090800006F0600006F06000009080000ED
:100800006F0600005F06000013F8011C6C2927D159
:1008100013F8021C6C294FF000013AD04FF0040885
:10082000C1461EE0009800F1070B2BF00700F0E82E
:1008300002890734009024F0070455B1059820443C
:10084000B04204D96FF01B000DB0BDE8F08FC4E9D1
:100850000089083400214FF0080802E70021DDE795
:100860000021013C4444C8F1000C04EA0C0425B109
:10087000A9EB050CA4446645E4D3732852D104982F
:10088000DDF800B001385BF8047B0490CDF800B0CF
:10089000C0E64FF00808C3E702984FF0000C00F0E4
:1008A000020ECBE60F2A3FF6D2AE45B30DF1300E65
:1008B000C0F387009644BCF1000F1AD060F07F00AF
:1008C0000EF8100C0AF1010A0132C5F108000434D7
:1008D000059013F8010F00287FF4BCAE611BB1F541
:1008E000806FBFF4B4AE002D41D1A6F108046018AA
:1008F000AAE70EF8100C039801300390E4E7BCF16E
:10090000000F01D1019808B10136DDE73846CDE985
:1009100006210593FFF76BFD0236DDE90621059BF5
:100920000644D1E7B9F1040F0ED1009800F1040C90
:100930000DB1006820600434CDF800C0C9E700BFE5
:10094000C8710000AC800000B9F1080F7FF47FAEE1
:100950000098073020F0070000F1080CCDF800C027
:100960001DB1D0E900BCC4E900BC0834B1E7019B6B
:100970002860890829709DF80C10A3B16870E9708F
:1009800085F802A0BAF1000F06D008A84FF0000CBD
:10099000C5F1010E62450AD10DF1200808EB0209EC
:1009A000C5F1010B39E0019B6970EB70E8E710F8C5
:1009B000011B0B0608D504EB0E08464501F07F012C
:1009C000FFF440AF04F8011B0CF1010CE2E7BAF1AF
:1009D000000F03D098F90020002A1CDB019B03BB09
:1009E00098F8002055F8227045F822303846FFF775
:1009F000FEFC421C04EB0B0111448E42FFF422AFBB
:100A000098F8001004F8011B39462046009206F0C1
:100A100097FB009A144408F10108C145D7D1601B27
:100A200012E70022E6E76FF00D000DE707293FF619
:100A3000E7AD07E72DE9F04F8BB00646149F03930F
:100A400014468B46A9B1B57804952DBBAA46F37818
:100A500001930BB1BA0722D4BAF1000F1FD124B110
:100A60005A463146204606F06BFB58460BB0BDE8AF
:100A7000F08F90F80190B578007805EB800535444B
:100A80008A46CA45DFD201352846FFF7B0FC01305F
:100A900005440AF1010AF4E707F0010AD7E796F8DE
:100AA00000904FEA8903029306EB8909002C5BD181
:100AB000BAF1000F32D04D444D451DD1A946DDF8A5
:100AC00004A0DFF800C2804907F005084D46CA447B
:100AD00007F00202AA45C8D015F8010B56F820000D
:100AE000604524D3884222D2FB073AD4B8F1000FE4
:100AF000F0D10BF1FF3BEDE719F8013B56F823006D
:100B0000FFF775FC159B013033B1169B9C423EBF2D
:100B1000159B23F8140001348344CDE72DB117F061
:100B20000404CCD0A9445446C9E72C46C7E7002AA0
:100B3000D0D04FF000090192FFF759FC159BDFF868
:100B400084C1019A6049013033B1169B9C423EBF7B
:100B5000159B23F8140001348344B9F1000FB9D078
:100B6000C4E74FF00109E6E7029A3146204606F055
:100B7000E7FA029B04EB0308BAF1000F0AD0102336
:100B800049462A4606A806F0E9FA0023A370A944BC
:100B900043460BE0B5B17B0714D52A46494640468B
:100BA00006F0CEFAA94408EB05035546019A09EB75
:100BB000020C07F0010207F0020A4946059207F00D
:100BC000040724E00025A570E2E711F8012BDFF807
:100BD000F4E056F82200704503D3DFF8ECE07045EE
:100BE00005D3BAF1000F04D103F8012B0FE00598EB
:100BF00038B10DF1280E681C754405F8102CC5B2EB
:100C000005E027B103F8012BA2780132A2708C45D0
:100C1000DBD16278049801992A446270A278A3EB30
:100C20000808A8EB0208019A84F803801044029A8D
:100C3000ABEB0000A0EB020B5A464944184606F005
:100C40007FFA8344ABEB0400002D3FF40FAF039B0E
:100C50001C1AA54202D36FF01B0007E74FF00008F3
:100C600006AB159A13F8083056F82310C2B132F8C3
:100C70001870D94604F1FF3A09F8013B97B13A469A
:100C8000484606F05DFA08F101084545AAEB07045D
:100C900009EB070BE4DC039B1F44A7EB0A00E5E626
:100CA000159FE6E701390127BC42D4D011F8013F76
:100CB0000BF807307A1C13B9002FE4DACBE717469C
:100CC000F2E700BFC8710000AC800000014B186063
:100CD000704700BFBC00002030B585B0CDE90101F0
:100CE0000446002501A90548039500F049F9DDE90E
:100CF00002309842B8BF255405B030BDD76100001E
:100D00002DE9F84FB0F81C9019F0080804469346F6
:100D10000DD001290CBF49F0100949F02009A0F8B5
:100D20001C908BF31188BFF36F8FBDE8F88F09F02B
:100D30000709022907D1204605F07AFA0028F0D0E9
:100D40000128A38B4ED1A769A18B002F15DA256846
:100D500021F00701C4E9008841F00101A1830026C8
:100D6000A18B01F0070ACA4502D0A368002B5AD113
:100D70000DB9002E71D0002356E001F007035A1F71
:100D8000012A1ED821F00701062B256889B2C4E983
:100D900000880AD13DB1E38B2A46126801339BB229
:100DA000002AFAD1E38341F00201A183204605F035
:100DB0003FFA06460028D3D0A38B43F02003A38339
:100DC000CDE7042B0CD121F0070189B2A183204685
:100DD00005F02EFA05460028C1D041F02001A1837C
:100DE0000025BCE7032809D1226923F00703166810
:100DF00043F00603A38300252F46B1E7042806D15C
:100E0000226923F00703566843F00403F2E705283C
:100E100006D1226923F00703966843F00503E9E74A
:100E200000252E46E8E7012341F00801A1838BF35A
:100E30001188BFF36F8FFBB985BB16B11F492046E0
:100E4000B0474FF02003EFF3118B83F31288BFF309
:100E50006F8FA38B23F00803A383A38BDA0625D51A
:100E600023F01003A3830121B4F81C9009F00709B3
:100E700000297FF45EAF54E7A1680029DCD0D1F8E7
:100E80000090D1F804B03B4652462046D847B9F10D
:100E9000000FD1D04946D9F80090F2E729463B46E9
:100EA000524620462D6805F0DFF9C5E713F0200112
:100EB0001EBF23F02003A3830221D5E79562000023
:100EC000F0B5084E026803460A2700201146013299
:100ED0000C78A55D6D0701D41960F0BD07FB0040DB
:100EE0003038F3E7AC7F00002DE9F84F15469A46FD
:100EF000D378224A13F802B06F2B80460F460BF0CE
:100F0000030B29D024D8582B14BF0A261026DDF84D
:100F100028903246002340463946FFF7F1F8092A67
:100F2000D4B21ED83034B045E4B277F1000309F8EA
:100F3000014D01D3D14511D82B789B0605D5082E3C
:100F400015D1AB7843F00803AB704846BDE8F88F85
:100F500003F0F703702BD7E70826D8E780460F4643
:100F6000D7E7BBF1010F0CBF37345734DBE7102E46
:100F7000EBD1AB7843F01003E6E700BFAC7F000095
:100F80002DE9F04F824693B08B4691461C460025D2
:100F900099F8000008B928463DE309F10103252826
:100FA000029306D05946D0470028C0F23483013559
:100FB000F5E1182200210CA806F0E3F899F80130B9
:100FC000252B5AD009F10102164612F8013B2B2BB2
:100FD00000F08B8079D8202B00F08C80232B00F040
:100FE0008E809DF8383003F04402442A03D16FF319
:100FF00086138DF838309DF83830059643F080031D
:101000008DF8383033782A2B7ED19DF8393043F073
:1010100001038DF83930731C05931A782E2A9DF838
:1010200039200CBF0121002161F341028DF83920E4
:101030000BD15A1C05925A782A2A7BD19DF8392067
:1010400042F004028DF839200233194611F8010BE1
:101050006C2800F0B6807DD8682800F084806A286B
:1010600000F0B9804C2800F0BD809DF839206FF366
:10107000C6028DF83920194680E009F10202029279
:101080008DF83B309DF83930D90740F14A8154F84A
:10109000048BB8F1000F07DA9DF8382042F0040203
:1010A0008DF83820C8F100085A0740F1438154F800
:1010B000047B002F80F242819DF839306FF34103A9
:1010C0008DF839304FF0FF3738E12D2B06D0302B1B
:1010D00087D19DF8383043F0400303E09DF8383065
:1010E00043F004038DF838306EE79DF8383043F054
:1010F0000803F7E79DF8383043F01003F2E79DF856
:10110000383043F02003EDE705A8FFF7D9FE059B33
:10111000B34281D09DF838100F90C1F3400242EAEB
:10112000D072520062F07F0201F07D010A438DF817
:10113000382071E705A8FFF7C3FE9DF838301090FE
:10114000C3F3400242EAD07060F341038DF83830B7
:10115000059B7AE774289DF8392040D07A2884D1FD
:101160001346062228E05A78682A9DF8392021D1B2
:10117000012161F3C6028DF83920991C0B4613F842
:10118000012B0293782A9DF839308DF83B2000F22C
:10119000C080572A33D8412A03D0453A022A00F2A8
:1011A000B8809DF83A30042262F302038DF83A3099
:1011B000012385E01346022262F3C6038DF839301D
:1011C000DCE75A786C2A9DF8392001D10421D0E758
:1011D00013460322F0E79DF839300522ECE7134669
:1011E0000722E9E7BDF8383023F4F04323F0020387
:1011F00043F4804343F00203ADF83830BEE7A2F178
:101200005801202900F2858001A050F821F000BF8C
:10121000D512000013130000131300001313000075
:101220001313000013130000131300001313000026
:1012300013130000A311000013130000D5120000C7
:1012400095120000A3110000A3110000A3110000DB
:101250001313000095120000131300001313000075
:101260001313000013130000DD120000D51200005C
:10127000F91200001313000013130000F91200000C
:1012800013130000D5120000131300001313000005
:10129000D51200009DF83A10012003F0780360F3A6
:1012A0000201402B8DF83A1002BF9DF8381041F032
:1012B00001018DF83810632A31D1003B18BF01239A
:1012C0009DF83820C2F340010B4363F341028DF8CF
:1012D0003820D7E69DF83A100220DEE79DF83A2044
:1012E00003F07803A3F14000032161F302024342BB
:1012F0008DF83A204341E3E79DF83A20032113F0AB
:10130000780F61F302028DF83A2014BF0123002305
:10131000D6E79DF8383043F001038DF838300023CC
:10132000CEE79DF93820002AB4BFDDF83C804FF0AD
:10133000FF38B9E69F077FF5C5AE109F9DF83910BD
:101340000023CDE90F339DF83A3003F00703012B5A
:10135000C1F3C30139D1CB1E042B23D8DFE803F03E
:1013600003090922220054F8043BDA17CDE90C32B4
:1013700006E0073424F00704F4E80223CDE90C2347
:101380009DF8383013F0030657D0029B4A46594661
:10139000504605F002F80028C0F23D810544DDF812
:1013A0000890F5E554F8043B01294FEAE372CDE9D2
:1013B0000C3205D19DF830300C9300230D93DFE7FC
:1013C0000229DDD1BDF93030CFE7022B23D1CB1E6E
:1013D000042B13D8DFE803F0030A0A121200226874
:1013E0000C920023201D0D930446C9E7E01D20F058
:1013F0000700F0E80223CDE90C23F5E754F8043B9D
:101400000C9301294FF000030D93D3D00229B7D1DB
:10141000BDF83030D0E7042B09D1E31D23F00703DA
:1014200003F10804D3E90023CDE90C23A8E7032B3B
:1014300004BF54F8043B0C93A2E79DF83B007828C6
:10144000ADD8622820D825283FF4ACAD5828A6D1C5
:101450000DF12E030093DDE90C0106AB0EAAFFF798
:1014600043FD8146002F0DF12E000BDB9DF8382047
:10147000A0EB09036FF386129F428DF8382001D943
:10148000FB1A0F9307463CE06338152887D801A262
:1014900052F820F013150000751500009F1300008E
:1014A0009F1300009F1300009F130000751500009C
:1014B0009F1300009F1300009F1300009F13000064
:1014C000CF1500009D150000A11500009F1300001E
:1014D0009F130000ED1400009F1300009D150000F5
:1014E0009F1300009F1300009D150000002FDDF8E2
:1014F00030900ADB3946484605F053FE09EB0007F9
:101500000026B9F1000F0CD149E74846FEF76FFFFE
:10151000F4E70C9B8DF8183000260DF119070DF13A
:101520001809A7EB090306B101339DF83A20D0064C
:1015300066D5023352060F9948BF109A0B4448BF34
:101540009B18B8F1000F73DD9DF83820A8EB030855
:10155000C2F38003039353076AD450065ED53EB1AD
:1015600059463046D047002855DB039B01351E46BF
:10157000302354E01E070FD413F0100618BF2026A6
:10158000DDE90C23002BBFF663AF524263EB43034C
:10159000CDE90C232D265BE72B26F1E7002657E744
:1015A0000C9840B30DF12E0300930EAA06AB002158
:1015B000FFF79AFCBDF83A3003F0EF0343F4F04331
:1015C00043F010038146ADF83A3000264AE70C9B01
:1015D00007293FF6E4AEDFE801F00C04060C08082A
:1015E0000C0C1D70DBE61D80D9E6EA17C3E900523A
:1015F000D5E61D60D3E62E4F0646A7F1050990E714
:10160000110748BF013395E7184659460393D04761
:101610000028039B04DA13B0BDE8F08F2023454473
:101620004246002AA5EB080108F1FF38ECDC0D4624
:101630002EB159463046D0470028ECDB01359DF8E5
:101640003A30D90601D41A0705D559463020D0477B
:101650000028E0DB01359DF83A30DB0606D59DF821
:101660003B005946D0470028D5DB01350F9E2E445C
:10167000731B002B15DC3B464A465946504604F086
:101680008CFE0028C7DB0544A844A8EB0503002B0B
:101690007FF785AE59462020D0470028BBDB0135B7
:1016A000F3E759463020D0470028B4DB0135DFE7A7
:1016B0006177000008B54FF02002EFF3118382F349
:1016C0001288BFF36F8F01F0FFFC034804F096FD12
:1016D00000F020FFFCE700BF6277000030B5104942
:1016E000104889B0002205F001FD0F4D0F4900227E
:1016F0000023CDE9062300240E23CDE90334CDE9F0
:1017000001440B4B00944FF44072284603F056FC02
:101710000849284605F0B4FB204609B030BD00BF9B
:10172000391700006006002098060020A815002048
:101730005D1900008B770000014803F09DBD00BFDC
:101740004C020020014B53F820007047C874000081
:1017500070B5124BBFF35B8F53E8005F6A1C43E820
:1017600000210029F8D1BFF35B8F2DB90C4C0D4E31
:10177000361B3611B54200DB70BD237B53B12368A5
:101780009B690BB12046984763680422196820467C
:1017900000F092F901351034ECE700BF4C0800204E
:1017A00090740000A074000010B5044C237813B9A5
:1017B000034803F061FD0123237010BD791100205F
:1017C0004C0200200C4BBFF35B8F53E8002F01321B
:1017D00043E800210029F8D1BFF35B8F58B1BFF374
:1017E0005B8F064B53E8002F013A43E800210029A4
:1017F000F8D1BFF35B8F70474808002044080020F1
:101800000020064BBFF35B8F024653E8000F43E80E
:1018100000210029F9D1BFF35B8F704748080020F1
:10182000F8B5FFF7EDFF0A4C0A4D2D1B07462D11A9
:101830000026AE4200DBF8BD63685B792BB12368FC
:101840001B6913B139462046984701361034F0E73A
:1018500090740000A07400000149024804F068BEC2
:10186000D474000050080020084A08B50023137003
:10187000074A1360074B084A1A604FF4004000F013
:10188000FFFABDE80840FFF7E7BF00BF7A1100206C
:1018900048080020C0000020D9670000014600224F
:1018A0000148002304F065BE50080020014804F000
:1018B000F6BE00BF500800200146014804F03BBFBF
:1018C00050080020014804F06ABF00BF5008002003
:1018D0001D4B1B782DE9F041054603B988B304F090
:1018E00090FF064618B16DB13046FFF7E5FF2DB900
:1018F000164B1B68002B01DDFFF792FFBDE8F0419E
:10190000FFF7E0BF124BBFF35B8F53E8002F013AA4
:1019100043E800210029F8D1BFF35B8F0D4C0E4F37
:101920003F1B3F11A846B845DEDA63685B7923B1F7
:10193000236831461B682046984708F10108103497
:10194000F1E7BDE8F08100BF7911002048080020D0
:101950004408002090740000A074000010B5FFF748
:10196000F7FE03F0C3FF0C4B186030B10B4B1B6844
:10197000092B02DD0A4803F07FFC094C0020FFF729
:10198000A7FF0028FAD14FF0FF324FF0FF33204677
:1019900003F092FCF2E700BF8C080020440800200E
:1019A0004C02002013B51D4BBFF35B8F53E8002F93
:1019B000511C43E800100028F8D1BFF35B8F184B8F
:1019C0001B7883B14FF02003EFF3118483F3128867
:1019D000BFF36F8F0020FFF77BFF84F31188BFF305
:1019E0006F8F02B010BD0F4B1B68002BF9D052B99E
:1019F00000220023CDE900230B484FF400420023CE
:101A000004F064F9EDE70A2AEBD1074805F07AFB08
:101A1000064802B0BDE8104003F02EBC4408002088
:101A20007A1100208C080020600600204C02002063
:101A3000064B10B51B68044698472146A060044831
:101A400004F00DFEBDE81040FFF7ACBFC000002061
:101A500050080020F8B50E4F3D7875B90D4C0E4E6C
:101A6000FFF776FE361B3611B54207DB0020FFF785
:101A70002FFF0028FAD101233B70F8BD63685B7922
:101A80001BB1236820465B69984701351034EBE7AA
:101A90007A11002090740000A0740000044A054BE5
:101AA0009B1AB1EBD30F34BF52F8310000207047BE
:101AB0002874000090740000054A4368801A0011E1
:101AC00001300122187119605A71FFF76DBE00BF15
:101AD000907400000EB403B503AB014653F8042B19
:101AE00004480193FFF74CFA02B05DF804EB03B031
:101AF000704700BF436800002DE9F0471D46089B72
:101B00001746DA0604460E4605D499064CBF2B4903
:101B10002B49FFF7DFFFDFF8AC904FF00008A84536
:101B20002DDBDFF8A480DFF8A490DFF898A0002573
:101B3000BD4232D2725D49462046FFF7CBFF0135E8
:101B4000102D23D12249DFF87C80DFF88890DFF860
:101B500088A02046FFF7BEFF0025AF4229D9725D5D
:101B600012F8093013F0970F08BF2E225146204675
:101B7000FFF7B0FF0135102D14D1BDE8F0874946BD
:101B80002046FFF7A7FF08F10108C8E76A07CFD191
:101B900051462046FFF79EFFCAE741462046FFF721
:101BA00099FFCCE76B07D8D141462046FFF792FF5B
:101BB000D3E741462046FFF78DFFDBE7987700002B
:101BC00097770000A2770000A07700009A770000C6
:101BD000A4770000AC7F0000A67700002DE9F04F4D
:101BE00087B01C4601F0010305929DF84090BDF9B5
:101BF00048A004930746884601F0020B01F008064E
:101C000004F003FE0246002844D03A493846FFF764
:101C100061FF0546BBF1000F08D018F0440F3BD11F
:101C2000354922463846FFF755FF0544049B53B11A
:101C3000324B334953F82920324B3846002A08BF2B
:101C40001A46FFF747FF3EB12F4B304953F8292082
:101C50003846FFF73FFF0646BAF1000F16DB059B3B
:101C6000002B45D0012303FA09F9294B294C19F01F
:101C7000100F18BF1C4651469DF84400FFF70EFF99
:101C8000214602463846FFF725FF0644701907B083
:101C9000BDE8F08F0546BDE71F4B18680028C4D08B
:101CA0001E4B4FF47A781B68B4FBF3F44FF4616178
:101CB000B4FBF0F300FB134408FB04F44FF03C0CBE
:101CC000B3FBF1F201FB1231B4FBF0FEB1FBFCF30C
:101CD00000FB1E440CFB131108FB04F40091B4FB41
:101CE000F0F00F49CDE901E03846FFF7F3FE9CE73D
:101CF000084CC0E7B7770000BB770000E87400002D
:101D000029770000A9770000FC740000E07700004C
:101D1000B3770000AE770000900800209408002000
:101D2000C477000038B50C46E107054603D5084ADC
:101D30000849FFF7CFFEE20608D4A30628464CBFA9
:101D400005490649BDE83840FFF7C4BE38BD00BFAD
:101D5000A9770000297700009877000097770000A6
:101D60002DE9FF470B8813F4E07F06460C469046AA
:101D7000C3F382194DD00A784B68C2F3C202002B1C
:101D800044D025495B1A43F3CF03CDE90123CDF8B5
:101D90000090A368002241463046FFF71FFF8246AD
:101DA000254655F8103BC3F3492353B11B4F1C483C
:101DB0001C492B463246B9F1000F08BF384604F0E3
:101DC000BDF96788C7F3CB0797B12368C3F34923ED
:101DD0001D44102F3C4628BF10242946CDF8008012
:101DE000534622463046FFF787FE3F1B2544F0D17D
:101DF000B9F1000F04D04A4641463046FFF792FF42
:101E0000304604B0BDE8F04704F00EBD4FF0FF339C
:101E1000BBE7CA46C4E700BF287400007968000029
:101E200043680000810F000073B542F20F738B42CC
:101E300028BF0B4605680F4A04460521684604F092
:101E4000EAF963680C495B6806460B22284604F0F1
:101E5000DEFC63683246694628465B6804F0D7FCBE
:101E6000636806495B681B22284604F0D0FC02B078
:101E700070BD00BFE97E00002278000006780000F7
:101E8000084A10B50123084C13600021A04204D871
:101E900001B11360054B186010BD40085B000121C3
:101EA000F4E700BF9408002040420F009008002093
:101EB0002DE9F04F87B0DDE911579A46109BDDF808
:101EC0004CB00393044689469046CFB3CDF800B09A
:101ED0003B462A4610210020CDF814B0FEF774FBD3
:101EE0000646039A08F0070304F0070802F11700FA
:101EF000144C4FEAC80848EA83183044124B04EAED
:101F0000462420F0070048EA040803EAC243800898
:101F100048EA0308FFF7C2FC044640B13FB1CDF8E0
:101F200000B03B462A4631461030FEF74DFB534683
:101F300042464946204607B0BDE8F04F04F0A9BC30
:101F40003E46CEE700FE07000000F87F014B01226D
:101F50001A7070478B110020014B002019607047E8
:101F6000A0080020024B034801221A7004F05CBC58
:101F70008C110020307500000148FFF755BF00BFED
:101F800030750000064B10B518680C46FFF7DAFBF9
:101F900021460346BDE8104002480F22184700BF03
:101FA000A008002030750000054B1B781BB141F2E2
:101FB000883005F097B8A420002103F07DBC00BF55
:101FC0008C1100202DE9F047DFF88C90DFF88CA011
:101FD00080460F46042499F80050CDB94FF0FF33E6
:101FE0004FF0FF32504603F08DF83A4641462846FE
:101FF00002F04EFD0646504603F0FCF8184DFEB1C7
:1020000001232B7099F800306BB93846BDE8F08792
:102010003A464146002002F03BFD0646EEE75CB939
:102020002C704FF0FF34002002F0AEFD0028ECD001
:102030002B78002BF3D1E8E7013CFFF7B5FFF2E77F
:102040002B7813B1013C04D12C702B78002BC2D11A
:10205000DBE7FFF7A9FFF8E78C110020240200203E
:102060008B11002038B5044C044DAC4200D338BD70
:1020700054F8043B9847F8E72874000028740000DF
:1020800038B5054C256804EB850405B938BD54F80E
:102090000439013D9847F8E72074000008B504486A
:1020A00004F002FF034B0020C3E9003308BD00BF6A
:1020B000B8080020B00800202DE9F84305464FF08D
:1020C0002003EFF3118683F31288BFF36F8F0E4B5B
:1020D0001C689CB10D4FDFF838804FF00C09D4E933
:1020E0000132002D08BF13462BB198F8142009FBCC
:1020F00002F2B85C98472468002CF0D186F311886E
:10210000BFF36F8FBDE8F883CC080020D40800200F
:10211000680F00204209012300F01F0003FA00F0BD
:10212000074BBFF35B8FC04303EB820353E8002FE1
:10213000024043E800210029F8D1BFF35B8F7047CC
:10214000E008002038B51A4B1C7DBFF35B8F04F00C
:102150001F0301229A40174B6109D04303EB81030F
:1021600053E8001F01EA000543E8005CBCF1000FE2
:10217000F6D1BFF35B8F114213D00F4B0F4D8BB1D4
:102180000C236343EA18E85C517804F010FC00204B
:10219000FFF792FF0C235C432A1900232B51C2E95D
:1021A000013338BD83F31188BFF36F8FEFE700BFB2
:1021B000680F0020E4080020AF690000D408002068
:1021C0002DE9F843324B334A1C7DBFF35B8F630923
:1021D0004FEA830952F823302F4EBFF35B8F04F090
:1021E0001F0843FA08F313F0010F07460AD101460E
:1021F000204600F069F828B107C80C2303FB0463EC
:1022000083E807000C236343F218F55C2DB92046E0
:10221000FFF780FF2846BDE8F8837B1C0FD0D2F87B
:1022200008C01E481E4A4FF4004500210023ECFB65
:102230000501FDF765FF0121381A04F035FF03F0B1
:10224000BBF80120FFF738FFBFF35B8F012303FAD0
:1022500008F8144B994459E8003F43EA080349E859
:102260000032002AF7D1BFF35B8F0F4B33B10C2341
:102270006343F218F05C517804F08DFBFFF762FFC6
:102280002046FFF747FF03F067FA0120C3E700BFCE
:10229000680F0020E0080020D40800203F420F0013
:1022A00040420F00E408002097690000054BBFF38F
:1022B0005B8F53F82000BFF35B8F003818BF0120FD
:1022C000704700BFE80800202DE9F04F85B00F46A9
:1022D00003A900F047F8DFF88080DFF880A0441EF3
:1022E00024B24FF0000B631C04D10026304605B029
:1022F000BDE8F08F039A04EB440302EB830612F867
:102300002300FFF7D3FF054610BB70684FF4004968
:10231000C4462946E0FB09C152465B466046FDF7CC
:10232000EFFE0190B068C4462946E0FB09C15B4658
:1023300052466046FDF7E4FE094B1B68591C01D06C
:10234000834205D97A1CD1D0019B1844B842CDD91B
:10235000013C24B2C7E700BF3F420F0040420F00DC
:10236000C400002008B9024B0B600020704700BF7A
:1023700040750000014803F04FBD00BF40750000EC
:1023800010B5044618B90D4B0D485B689847616855
:1023900008290DD031F004030AD011F0020108D051
:1023A0000848214604F03DFD0023236000236360BC
:1023B00010BD2068142204F0E4FEF7E77401002049
:1023C000467800000409002008B508B34368042BD0
:1023D00010D101220368BFF35B8F53E8001F00296F
:1023E00003D143E800200028F7D1BFF35B8F0BD166
:1023F000002008BD53B100684FF0FF324FF0FF33AB
:1024000002F080FE0028F3D00348F2E70348F0E72B
:102410006FF4E040EDE700BFE98FFFFFEA8FFFFFB9
:1024200008B5D0B14368042B11D100220368BFF373
:102430005B8F53E8001F012903D143E800200028E7
:10244000F7D1BFF35B8F074808BF104608BD3BB10B
:10245000006802F0CFFE0020F8E76FF4E040F5E7F7
:102460000148F3E7E98FFFFFEA8FFFFF10B504464D
:1024700018B9164B16485B6898476368042B23D03D
:10248000082B21D0CBB92368BBB912484FF0FF32DB
:102490004FF0FF33214602F033FD08B923681BB922
:1024A0000A4B0D485B68984720681422002104F00D
:1024B00068FE636843F002036360206804F0F4FC84
:1024C000636843F00103636010BD00BF7401002026
:1024D00046780000040900206C78000008B5064921
:1024E00006484023142204F080FCBDE8084004495B
:1024F000044803F0F1BC00BF2409002004090020B7
:102500005875000048750000014910220A607047A4
:1025100010ED00E072B6404080F31188BFF36F8F7A
:10252000BFF34F8F30BF62B6BFF36F8F704700BFEE
:102530002DE9F047814600AF0C4600294CD06E468D
:102540008AB06D46D1E90012A3682748A8464FF02B
:10255000050AC5E90501C5E9072348F810AF234876
:10256000424600234FF4215104F0AEF9D4E903129E
:1025700063691F48C5F810A0B546C5E90501AD4619
:10258000C5E907231948424600234FF4215104F0BE
:102590009BF9B54688B06D46E369164AA8464FF0E8
:1025A000030AC5E9052348F810AF10484246002346
:1025B0004FF4C25104F088F90F4AA369C5F810A07E
:1025C000B546C5E90523AD460848002342464FF409
:1025D000C25104F079F9B5462146484602F028FB7D
:1025E000BD46BDE8F08700BF997800007074000018
:1025F000C8780000F77800000679000043B2002B8D
:1026000008DB012200F01F0002FA00F05B09024A19
:1026100042F82300704700BF00E100E0054B42098B
:1026200000F01F0053F82220012303FA00F01040AD
:10263000704700BF00E100E043B2002BA8BF03F1E8
:10264000604301F10101B8BF064B4FEA4111ACBF35
:1026500003F5614300F00F00C9B2B4BF195483F809
:102660000013704714ED00E030BFFFF7FDBF00BF5F
:102670000B4A08B50B4B22F07F029A60BFF34F8FD5
:10268000BFF36F8FD3F8882022F47002C3F888203C
:1026900002F068FB03F082F900F082FB02F0A2FB7B
:1026A0000000000000ED00E0094A0A49936809684B
:1026B0009967094958674B6843F080534B60002382
:1026C00083F31188BFF36F8F9368986F704700BFD3
:1026D000680F00203876000000ED00E00F498A689E
:1026E0004FF030001044EFF3098C80E8F01F2020F9
:1026F00080F31288BFF36F8F094F4FF00066CA69ED
:102700008A603E60506F0023536780F3118802F1A6
:10271000300090E8F01F8CF309887047680F0020A4
:1027200004ED00E01EF0040F0CBFEFF30880EFF3A0
:102730000980816911F8021C0229FFD001B504F05B
:1027400013F901BD42F8203C009B42F81C3C0A49A9
:10275000019B42F8183C029B42F8143C21F0010115
:102760004FF0807342F8043C42F8081C0023203AE2
:1027700002654367704700BF87630000074B98609E
:10278000104681F30988002163B681F31188BFF3F5
:102790006F8F0022002303F0F6FD00BF680F0020BA
:1027A00001B572B60B4A906900281EBF00219161E5
:1027B00004F06BFB62B6EFF30580A0F110004FEA66
:1027C000C0000549014409C99847BDE801400349D3
:1027D00008470000680F0020A0720000E1270000F9
:1027E000044B9968D869884203D003494FF080525E
:1027F0000A607047680F002004ED00E02DE9F04109
:1028000086B000AF424B7B6106460D46414802242C
:1028100007F110024FF482513C6104F0B4F83E4BD2
:102820009B6ADB0609D53D4B3A4807F110024FF48D
:102830008251C7E9044304F0A6F8374B9B6A180796
:102840000AD5374B7B613348022307F110024FF45E
:1028500082513B6104F097F82F4CA36A990722D567
:10286000304B7B6107F1100202232A483B614FF491
:10287000825104F088F8636BA26A1206E84612D50A
:1028800088B0294923486A46C2E90513032342F860
:10289000103F4FF4C25104F076F8C5461EB1A36A4A
:1028A00023F08003A3621C4B9B6ADC070AD51F4BF5
:1028B0007B611848022307F110024FF482513B61FB
:1028C00004F061F8144B9B6A98060AD5184B7B619B
:1028D0001048022307F110024FF482513B6104F0CB
:1028E00052F80D4B9A6AD10658BF9A6A9A6A9206B4
:1028F00042BF5A6A22F400525A62074A936A002081
:1029000043F0FF03183793622870BD46BDE8F0819D
:10291000347900007074000000ED00E04A79000096
:102920007D79000090790000A8790000BE79000050
:10293000DD7900002DE9F04186B000AF3F4B7B61AF
:1029400006460D463E484FF48251022407F110021C
:102950003C6104F018F83B4B9B6AD90409D53A4B0B
:10296000374807F110024FF48251C7E9044304F0DD
:102970000AF8344B9B6A1A050AD5344B7B61304800
:10298000022307F110024FF482513B6103F0FBFF79
:102990002C4CA36A9B0522D52D4B29487B6107F15E
:1029A000100202234FF482513B6103F0ECFFA36B52
:1029B000A26A1004E84612D588B0264920486A4623
:1029C000C2E90513032342F8103F4FF4C25103F04C
:1029D000DAFFC5461EB1A36A23F40043A362194B74
:1029E0009B6A59050AD51C4B7B611548022307F1E8
:1029F00010024FF482513B6103F0C5FF114B9A6AFC
:102A0000D20515D5154B7B610D48022307F1100245
:102A10004FF482513B6103F0B6FF0A4A936A0020EB
:102A200043F47F43183793622870BD46BDE8F081B8
:102A30009B6A9B04F1D50A4BE5E700BF0C7A0000C6
:102A40007074000000ED00E0227A00007D79000043
:102A5000337A00004C7A0000617A00007C7A000032
:102A6000DD79000010B586B0334B3448059302245D
:102A700004AA4FF48251049403F085FF304B9B6A03
:102A80009B0108D52F4B2D4804AA4FF48251CDE964
:102A9000044303F078FF2A4B9B6ADC0109D52A4BDB
:102AA00005932648022304AA4FF48251049303F0AD
:102AB0006AFF234B9B6A180309D5244B05931F48D3
:102AC000022304AA4FF48251049303F05CFF1C4BD1
:102AD0009B6A590309D51E4B05931848022304AA83
:102AE0004FF48251049303F04EFF154B9B6A9A03F7
:102AF00009D5184B05931148022304AA4FF48251BB
:102B0000049303F040FF0E4B9B6ADB0309D5124B85
:102B100005930A48022304AA4FF48251049303F058
:102B200032FF074A936A6FEA03436FEA13430020B8
:102B3000936206B010BD00BF947A0000707400006C
:102B400000ED00E0AC7A0000BF7A0000D97A000006
:102B5000F77A00001C7B0000367B00002DE9F04F67
:102B6000794B8BB0D3F8048000AF0D46C8F308044E
:102B7000002686F31188BFF36F8F02F07F43B3F115
:102B80007F4F0ED102F00C03082B0CD16F4BFB6171
:102B90006F48022307F118024FF48251BB6103F022
:102BA000F2FE354603E0120701D405460126002354
:102BB000FB71E31E092B00F2A680DFE803F0059904
:102BC0009C96A4A4A4A4A49FDFF87C81614B6048D8
:102BD000FB614FF0020A07F118024FF48251C7F867
:102BE00018A003F0D0FED8F82C404FF0000B14EAE8
:102BF0000A04E94687F807B00BD0574BC7E906A38C
:102C0000534807F118024FF4825103F0BCFE002430
:102C10000DE0D8F82C30002B2BDA504B4C4807F144
:102C200018024FF48251C7E906A303F0ACFEFB790A
:102C3000DBB907F1080205F1200C28686968134622
:102C400003C3083565451A46F7D17B6A002E75D057
:102C5000C3F3080222B96FEA53236FEA43237B626E
:102C600007F108012046FFF763FC2C37BD46BDE89D
:102C7000F08FD8F82C305B00D9D5394B344807F1A8
:102C800018024FF48251C7E906A303F07CFEAB693A
:102C900033F8022C4DF602739A4208D098F8283087
:102CA000B3B1F91D0120FFF7A9FD0446BFE788B0C5
:102CB0002B682C4926486A46C2E90513032342F8CB
:102CC000103F4FF4C25103F05EFECD462C68AEE7D4
:102CD00098F8293023B1F91D0120FFF72BFEE4E716
:102CE000B8F82A309BB2002BA1D0FFF7BBFEDCE77F
:102CF000F91D0020D7E7F91D0020EEE71A4BFB6114
:102D00000223BB617CE7194A194B1A49104818F491
:102D1000F87FE8468AB018BF13466A46C2E9051331
:102D2000022382F82030103C134BD4614FF4095138
:102D300042F8103F03F027FEC54668E723F4FF730F
:102D400023F001038BE700BF00ED00E08F7B000064
:102D500070740000BA7B0000D17B0000F27B0000A1
:102D6000007C00001F7C00003B7C0000767B0000A4
:102D7000617B00005F7C000004000001024A53698F
:102D800043F010035361704700ED00E0EFF308805B
:102D9000EFF3098101B57246FFF7E0FE01BD00BF08
:102DA000044800232021C2180133302B82F800137D
:102DB000F9D1704700E100E0002080F31488BFF3F0
:102DC0006F8F04F0FBF900200D490860BFF34F8FAF
:102DD0000C4880F3088800F02BF8202080F311883D
:102DE00009484FF40061401880F30988EFF314801C
:102DF0000221084380F31488BFF36F8FFFF738FC7C
:102E000094ED00E0A81C0020E81D00200749D1F83F
:102E100090200023C2F307221846934200D1704746
:102E2000C1F89830C1F8A0000133F6E700ED00E0EA
:102E300008B572B6002383F31388FFF7E7FF144B3E
:102E40004FF0FF32C3F88020C3F88420C3F88820F5
:102E5000C3F88C20C3F89020C3F89420C3F89820BE
:102E6000C3F89C20C3F88021C3F88421C3F88821CB
:102E7000C3F88C21C3F89021C3F89421C3F898219A
:102E8000C3F89C2162B6BFF34F8FBFF36F8F08BDAD
:102E900000E100E0084B9B6883420BD1EFF3058310
:102EA00043B1064B5A6842F080525A605A6A22F483
:102EB00000425A6202F020BD680F002000ED00E0E1
:102EC000024B034A0348012100F080B800000420AF
:102ED000000000206C750000F8B5DFF8B4C000AF4A
:102EE00000258D421ADA4468002C4DD0FBB104F164
:102EF000FF3E14EA0E0F14D0264B6C4688B06A468B
:102F0000C2E90535032342F8103F234800234FF45C
:102F1000C25103F0D9FC6FF01502A5461046BD461C
:102F2000F8BD1F2CE8D906681EEA060FE4D1202C54
:102F30000668D0F808E0D2B214D9B4F1004F13D823
:102F4000013CB4FA84F4C4F11F046400072A4EEA79
:102F500004040BD911496C4688B06B46C3E90512CD
:102F60001A46CFE70824F1E73E24EFE726F01F06D4
:102F7000164346F0100644F00104CCF89820CCF833
:102F80009C600132CCF8A04001350C30A9E700BFAD
:102F900000ED00E0767C000068740000997C000081
:102FA000044B0522C3F89420BFF34F8FBFF36F8FFC
:102FB000704700BF00ED00E0BFF35F8F024B0022BF
:102FC000C3F89420704700BF00ED00E010B5034C3B
:102FD00001232278FFF780FF207010BD8D110020A3
:102FE00014490868082810B521D8FFF7E5FF124CEE
:102FF00049680022904201F10C0105D10F4B187075
:10300000FFF7CEFF002010BDC4F8982051F80C3C0B
:1030100023F01F03134343F01003C4F89C3051F80E
:10302000043C43F00103C4F8A0300132E2E74FF062
:10303000FF30E8E77875000000ED00E08D1100201A
:10304000014B1860704700BFE8000020F8B50A4F38
:103050000D46461EC0F10104A3199D4201DC28461D
:10306000F8BD73780A2B02D13B680D2098473B6866
:1030700016F8010F9847EFE7E800002008B51D217A
:103080000448FFF7E3FF404080F311884FF003004E
:1030900002DF00BFBF7C00004FF02003EFF311827E
:1030A00083F31288BFF36F8F06490123C1F84035BF
:1030B0004FF08041C1F8783582F31188BFF36F8FEC
:1030C0000020704700E001404FF08043C0B2C3F8D9
:1030D0001C05BFF34F8F0549054BCA6802F4E06237
:1030E0001343CB60BFF34F8F00BFFDE700ED00E05F
:1030F0000400FA0520B1034B800143F00103184797
:10310000704700BFC0740000044B0122C3F80025C3
:1031100008B1DA6070471A605A607047007000406A
:1031200070B5087900F01F04072C86B020D80B7802
:10313000092B12D8DFE803F0060606060611050D76
:10314000110F05234A78032A15D0042A25D0304BC5
:1031500004E00623F6E70723F4E72E4B059302234A
:1031600004932D48002304AA4FF4825103F0ACFBD2
:103170006FF0150042E001254A8844F20A06B24287
:1031800040D00CD844F20306B24216D044F20506F1
:10319000B24235D0B2B3214BE0E70025ECE744F270
:1031A0001406B24230D044F22806B2422ED044F285
:1031B0000F06B242EFD1032200E00022C0F340101C
:1031C0001B0243EA005343EA053343EA0243220168
:1031D00002F1804202F5E0420020C2F818352301D6
:1031E00003F1804303F5E0438A79C3F81425C3F85B
:1031F00010050B4B1C444B7984F8903006B070BD21
:103200000122DBE70222D9E70422D7E70522D5E72E
:103210000F7D0000F07C000030740000337D000062
:10322000000000202DE9F04188B00D4602AF7A4839
:103230004FF0FF324FF0FF3302F03EF86C6814B1EC
:1032400034F0FF010CD0754B7B6102233B61744865
:10325000002307F110024FF4825103F035FB1CE00C
:10326000704EDFF8C4C10A4624FA01F313F00103DB
:1032700042D00CEB010393F89030C3B96B486C4615
:1032800088B002AAC2E90501032142F8101F644870
:103290004FF4C25103F018FBA5466FF015045E48C9
:1032A00001F0EAFF20461837BD46BDE8F08106EB85
:1032B000011895F811E0D8F81805BEF1000E18BFF6
:1032C0004FF0010E20F0807040EA0E60C8F818053B
:1032D00001F15100000101323350D2B2013108290D
:1032E000C2D12B7CA3F10801062916D8DFE801F032
:1032F000201509152215130001F15100000133506A
:10330000ECE701234749012AC1F8F0356B7C13D95A
:10331000A3B1474B98E70323F4E76C46454988B0CF
:1033200002AAC2E90513032342F8103F0023AEE7C7
:103330000023E7E70223E5E7082B1BD8C1F8F435A3
:1033400029685300D9B9E96899421CD26C4688B003
:1033500002AA3948D3610423C2E9050142F8103FAB
:103360002F4800234FF4015103F0AEFAA5466FF049
:103370000B0494E76C4688B0304902AAD1E78989EA
:1033800001FB0333DFE7274BA968C3F82C16AC46D3
:10339000C3F83026BCE80F00234C04F164060FC6C6
:1033A000DCF8003033602B6800262666A44673B331
:1033B0000FCB04F1780585E80F006566A4F88860F6
:1033C00028B3BFF35B8F5CE8003F4CE80062002A43
:1033D000F9D1BFF35B8F1A48A56F1A4A4FF4004C1E
:1033E00031460023E5FB0C01FCF78AFE0022CDE903
:1033F0000001002304F1080002F068FC12484FF0BD
:10340000FF324FF0FF3301F057FF246E47E794F887
:103410007600FFF779FEF1E7400000205E7D0000B6
:103420003074000000700040000000207C7D00002F
:10343000BB7D0000967D0000107E0000ED7D000049
:103440003F420F0040420F00500000200E4B10B5CD
:103450000024C3F80441D3F80421C3F81041D3F881
:1034600010211222C3F804230720FFF7C7F82246D1
:1034700001210720FFF7E0F80448836C13B94030BE
:1034800001F0FAFE002010BD007000400000002096
:1034900038B52E4BD3F80421002A4AD00022C3F8B5
:1034A00004212B4CD3F8041101219960C3F80025A5
:1034B000636E2546C3B3E36F43B1B4F8882004F1CB
:1034C00064019847012814D0022828D0B4F8883025
:1034D000B4F884209A4222D90133A4F888301B4BD7
:1034E000D3F82C26D3F8341689B202EB4102C3F884
:1034F0002C26A36F2BB994F87600BDE83840FFF76F
:1035000003BEBFF35B8F55E8003F5A1E45E800211C
:103510000029F8D1BFF35B8F012BECDC38BDA36F22
:1035200013B10C4803F0EEFD0B48BDE8384001F044
:10353000A3BED3F810110029F0D0C3F81021D3F89E
:10354000102101229A601A605A60E7E7007000407B
:1035500000000020080000205000002070B50D463B
:103560000649411A044649110548402203F058FA19
:103570002B4601462046BDE870401847340E002017
:103580004072000037B50C460A490B4A411A4023E5
:103590000093491105462346084803F06EFA011EC0
:1035A00005DA2846234603B0BDE83040184703B08B
:1035B00030BD00BF340E0020E96A000040720000F8
:1035C000002270B5012104461046FFF735F80F4878
:1035D00000F094FE0E4B984215D103F001FB2669D2
:1035E0000C49304602F073FE00280BDB24690949C0
:1035F0000125B56404F1200002F069FE002801DB1A
:103600006565002070BD6FF00400FBE74D360000DB
:103610000000AD0BD475000001460C2309484B4354
:1036200070B5C418D4E910560022483322641844F7
:1036300003F0E3F92DB132462B460348BDE8704054
:10364000184770BD340E00204072000010B10128F0
:1036500004D07047034B9B6C5B0701D1FFF7DCBFC5
:10366000704700BF340E002008B54FF02003EFF381
:10367000118183F31288BFF36F8F124A136843F0EE
:10368000020013F0010310600CD04FF08042D2F81A
:103690000C34D2F80C2413F0010303D00A4803F0D1
:1036A000ACF9012381F31188BFF36F8F23B1BDE81B
:1036B00008400020FFF7B0BFBDE80840012003F03C
:1036C0009CBA00BF8C0E00207C0E00201FB500228B
:1036D0000123CDE90223094ACDF800D06B46CDF88D
:1036E00004D003F0FAF9002805DB4FF480420023F0
:1036F000684601F0E1FD05B05DF804FB016B0000D8
:10370000094BBFF35B8F53E8002F22F0020143E81F
:1037100000100028F7D1BFF35B8FD30702D401203C
:1037200003F0A6BA704700BF8C0E002038B52449BC
:10373000BFF35B8F0446012251E8003F41E80020BF
:103740000028F9D1BFF35B8F33B91E491E484B6087
:10375000CB608A6002F0CEFD631E012B22D803F0FD
:1037600089FB034610B9194A127812BB4FF02003A7
:10377000EFF3118283F31288BFF36F8F01234FF0B1
:103780008040D0F81814D0F81854ED03F9D501F0A2
:103790000301022901D0012CF3D123B182F3118856
:1037A000BFF36F8F38BD4FF080430222C3F804236C
:1037B000F8E74FF080420221C2F808130246DEE724
:1037C000900E0020240E0020540E00209F15002093
:1037D00010B5044C2046FDF779FA2046FFF730FC7F
:1037E000002010BDE93700002DE9F341DFF85C80CF
:1037F000174E8DF80700044603254FF0FF334FF0B6
:10380000FF32404601F07EFC01220DF1070100204D
:1038100001F08AF90746404601F0ECFC2FB1012384
:103820003370204602B0BDE8F0813378002BF8D029
:10383000013D08D003F01EFB0028DED1002142200C
:1038400002F03AF8D9E73570EBE700BF2402002018
:103850008E11002030B54068047B01F01F05B2F5E1
:10386000001F45EA441585B04FF0000404D12846F6
:1038700000F0BCFF002032E0B2F5800FCDE9024439
:103880002FD1B3F1007F0CBF042305238DF808303E
:10389000836823FA01F1C9072FD4B2F1A07F2CD19C
:1038A0006A09012A05F01F031C4A03F5E07318BFDB
:1038B0004FF0A04252F82330DB071ED40DF107046D
:1038C0002146284600F0F6FE154B984214D12046BA
:1038D00000F03EFF134B98420ED06FF00B0005B086
:1038E00030BDB3F1C06F05D0B3F1007F0CBF022330
:1038F0000123CBE70323C9E703940023194602AA57
:10390000284600F0B1FD074B984204D1012128461A
:1039100000F024FFAEE76FF00400E0E70003005082
:103920000400AD0B0000AD0B10B500F001FF044624
:1039300068B900F0D5FE084B98420AD107482146E5
:1039400000F0B2FE224605210620FEF775FE00209B
:1039500010BD6FF00400FBE70000AD0B6139000003
:10396000420970B5034602D0012A15D070BD0B4E36
:10397000326951680029F9D003F01F0301250C6852
:103980009D408A682A4002D04B6830469847002CF8
:10399000ECD021462468F4E7014EE9E758720000B4
:1039A000707200002DE9F04347683B7B01F01F0572
:1039B00085B00E4645EA43151446CAB902A9284601
:1039C00000F078FE0446284600F038FF4A4B984243
:1039D00004D06FF0040005B0BDE8F083844205D147
:1039E0009DF8080000F0AEFEA042F2D10020F2E700
:1039F0004FF000090DF103013046CDE9029900F0C6
:103A000059FE4B46804602AA4946284600F02CFD46
:103A1000394B984202D06FF01500DCE7804503D1A6
:103A20009DF8030000F08EFEA30351D540F206631B
:103A3000234040F2062293423BD00CD8062B15D0EF
:103A400004D89BB1022BE6D104230FE0B3F5007F2D
:103A5000E1D101230AE040F2024293422BD0B3F5B8
:103A6000C06F2AD0B3F5806FD5D102238DF8043012
:103A700084F48033C3F30043E0068DF8053054BF6F
:103A8000C4F34013032321038DF8063017D57B6858
:103A9000012101FA06F6C3F80865002201A92846AB
:103AA00000F090FD144B984214BF6FF015000020F9
:103AB00091E70723DAE70523D8E70323D6E7620374
:103AC00041BF7B68012101FA06F6C3F80C65E4E703
:103AD000E3064FF0000354BFC4F3401403241A4616
:103AE00001A928468DF8044000F0BEFC024B984224
:103AF0003FF47CAF8FE700BF0000AD0B10B5012392
:103B00008340114ABFF35B8FDC4352E8001F01EA98
:103B1000040C42E800CEBEF1000FF6D1BFF35B8F7C
:103B20004FF4803202FA00F002F1804202F5805236
:103B3000C2F80803BFF35F8FBFF36F8F0B4214BF50
:103B40000120002010BD00BFB00E00201949F8B5BB
:103B5000044622F07F450868C1E90023A5F500135B
:103B6000101AB3F5400F22D2134B1B681A0A1B061A
:103B70005E19124B42F10007C3E90067012601F00C
:103B8000EBFFA30003F1804303F58833D3F840250E
:103B9000AA420BD11EB94FF40002C3F84025084BCE
:103BA0004FF4803000FA04F4C3F84443F8BD002613
:103BB000E5E700BF30070020B40E00201807002002
:103BC0000010014019B3BFF35B8F0123104A8340FB
:103BD00052E8001F194342E8001CBCF1000FF7D166
:103BE000BFF35B8F0B4A4FF480338340C2F804333A
:103BF000094BBFF35B8F1B68BFF35B8F23FA00F0A9
:103C0000C30742BF054B4FF40032C3F80021704791
:103C1000B00E002000100140AC0E002000E100E0DA
:103C20000D4B1868010A0006BFF35F8F0B4BD3F8EA
:103C30000435181841F10001B3F5801F0AD2084B72
:103C4000D3E90023904271EB030303D210F180709B
:103C500041F10001704700BFB40E00200010014088
:103C6000180700202DE9F04F85B016469846054606
:103C7000FFF744FF0090FFF7D3FFB04271EB08035A
:103C800078D2464B301A68EB0101984271F100037B
:103C900080F08180424B03EB0513D3E902ABD8459A
:103CA00008BF564551D04FEA850909F1804905F111
:103CB000500709F58839BF004FF4803101FA05F348
:103CC000BFB226F07F4207F180470193D9F8400543
:103CD000344B07F588371446D3F80415401A20F002
:103CE0007F4021F07F4C0128C9F840C507D1CDE9BC
:103CF0000221132003F0F6F9DDE90221294B01F13D
:103D0000020CA4EB0C0020F07F40B0F5000F88BF40
:103D100064460020386038680198C3F8440324F0F2
:103D20007F40C9F84005D3F80405814206D0201A27
:103D3000023820F07F40B0F5000F19D8A41A24F003
:103D40007F4414EB060A48F1000B15490E982B012D
:103D500001EB0512C2E902ABC8500F9B536000246F
:103D600028460099FFF72EFF204605B0BDE8F08FEA
:103D70002046B1E701230C4ABFF35B8FAB4052E80A
:103D8000001F194342E800100028F8D1BFF35B8FF1
:103D9000B246C346D9E76FF01504E1E70100000120
:103DA0002007002000100140AC0E002073B5194B15
:103DB000194D00244FF0FF304FF0FF31C5F8084592
:103DC000C3E902014FF48033C5F80433134B0226D4
:103DD0004FF400320121C5F804631120C3F880219B
:103DE0002246FEF729FC1120FEF708FC0C4A0123AD
:103DF000AB602B6013600B4B0B4A009301940023C4
:103E00002046FFF72FFF3046FFF790FC204602B018
:103E100070BD00BF200700200010014000E100E05D
:103E2000B00E00204D3B0000FFFF7F002DE9F7435F
:103E3000354CD4F804339A070BD5D4F8043143B188
:103E4000324A0023C4F80431D4F804311368013332
:103E500013604FF02003EFF3118283F31288BFF356
:103E60006F8FD4F80433DB0312D5BFF35B8F284B7D
:103E700053E8001F21F0010043E80006002EF7D1AF
:103E8000BFF35B8F002936D1D4F84031002B32D1FB
:103E9000002382F31188BFF36F8F4BB3FFF7C0FE8F
:103EA0004FF02003EFF3118C83F31288BFF36F8F71
:103EB000184BD3E90267B04271EB07024FF00002E2
:103EC00020D34FF0FF384FF0FF39D3E90015C3E995
:103ED00002891A604FF48033C4F848338CF3118898
:103EE000BFF36F8F21B1009532463B4600208847D3
:103EF00003B0BDE8F0830023C4F84031D4F840316A
:103F00000123C6E71146E9E700100140B40E002086
:103F1000AC0E002020070020431C13B521D001283F
:103F200021DDB0F5000F20DA441EFFF779FE104BBB
:103F3000D3E90013401AB0F5000F28BF0024013068
:103F400002190C48824228BF024652184FF0000066
:103F500009490190009143F10003FFF783FE02B08D
:103F600010BD0448E0E70024DFE7024CDDE700BFB6
:103F700030070020FFFF7F004D3B000008B5FFF732
:103F80004FFE024B1B68C01A08BD00BF300700205F
:103F90007FB5FDF75FFD074B0593022304930648A9
:103FA000002304AA4FF4825102F08EFC0020FFF798
:103FB0008BF800BF717E0000587400004FF08053F2
:103FC000D3F83021082A06D1D3F83431052B02D892
:103FD000024AD05C70470020704700BF947E00000A
:103FE000024AD2F80034002BFBD0704700E00140B9
:103FF00010B502F0E9FD40B14FF080430022C3F854
:104000000C21C3F81021C3F8382502F0DDFD00288B
:1040100046D04FF08052604BD2F80414C3F82015FC
:10402000D2F80814C3F82415D2F80C14C3F82815D4
:10403000D2F81014C3F82C15D2F81414C3F83015A4
:10404000D2F81814C3F83415D2F81C14C3F840156C
:10405000D2F82014C3F84415D2F82414C3F8481534
:10406000D2F82814C3F84C15D2F82C14C3F8501504
:10407000D2F83014C3F85415D2F83414C3F86015CC
:10408000D2F83814C3F86415D2F83C14C3F8681594
:10409000D2F84014C3F86C15D2F84424C3F8702544
:1040A000FFF78CFF18B13D4B3D4AC3F88C26FFF754
:1040B00085FF18B13B4BFB22C3F81825FFF77EFFA5
:1040C00070B14FF080414FF08053D1F8E42ED3F817
:1040D000583222F00F0203F00F031343C1F8E43EFD
:1040E000FFF76CFF20B1304B4FF40072C3F840264D
:1040F00002F06AFD48B14FF08043D3F80024D207A4
:1041000044BF6FF00102C3F800244FF08053D3F88E
:104110003021082A0ED1D3F83431052B02D8234A96
:10412000D35C3BB14FF01023D3F808224FF080430B
:10413000C3F858254FF01023D3F80022002A03DBE0
:10414000D3F80432002B22DA194901234FF0102052
:10415000C1F804351224FFF743FFC0F80042FFF70F
:104160003FFFC0F80442FFF73BFF0023C1F80435CE
:10417000FFF736FFBFF34F8F0E490F4BCA6802F4AB
:10418000E0621343CB60BFF34F8F00BFFDE70B4BE3
:104190000B4A1A6010BD00BF00C000400050004034
:1041A0004881030000F00040009002408E7E000035
:1041B00000E0014000ED00E00400FA05EC00002002
:1041C0000090D00370B501250268B2FA82F3C3F102
:1041D0001F035E1CDCB214D0BFF35B8F05FA03F340
:1041E00022EA030350E8006F964204D140E8003C05
:1041F000BCF1000FF6D1BFF35B8FE5D102480C7024
:1042000070BD0248FCE700BF0000AD0B0200AD0B23
:104210000368CB40DB0710B515D4012303FA01F185
:104220000368BFF35B8F41EA030250E8004F9C42F2
:1042300004D140E8002CBCF1000FF6D1BFF35B8F36
:10424000EED1024810BD0248FCE700BF0000AD0BF4
:104250000400AD0BF7B5044618B1012829D003B00E
:10426000F0BD4FF080430222C3F80823C3F80401D5
:10427000D3F804210122DA6001239C428DF8073033
:1042800014BF00250DF1070542F210774FF080466C
:10429000D4B1012CE3D125B1D6F80C3403F00103DD
:1042A0002B70D6F80C34DB0318D4134B00225A7150
:1042B000D5E74FF080430022C3F80803C3F800217C
:1042C000D3F800215860D7E725B1D6F8183403F0A9
:1042D00003032B60D6F81834DA03C0D52DB90120BA
:1042E00002F07CFC013FD3D103E09DF80730012BA5
:1042F000F5D0012CD9D0B2E7B80E0020044B1A79C2
:1043000022B9012218609A8002487047024870471B
:10431000B80E00200000AD0B0C00AD0B4FF0804339
:1043200010B5D3F800216AB10022C3F80021D3F8F8
:1043300000210122C3F808230C4B587910B95A7197
:104340001B6898474FF08043D3F804216AB10022DC
:10435000C3F80421D3F804210222C3F80823034B35
:10436000BDE810401B680120184710BDB80E0020A2
:10437000036803F01F025B09012B0260024818BFAB
:104380004FF0A040704700BF00030050034B0830BF
:1043900033F81000C0F34010704700BFF000002059
:1043A00070B500F108030C4C34F81330DA050546FB
:1043B0000E4607D5C3F3432304EBC30254F833304E
:1043C00052689847A3682BB1E26831462846BDE899
:1043D0007040184770BD00BFF0000020124A08303E
:1043E00010B432F81030D9051BD5C3F3432123F4A0
:1043F000F85322F8103002F11004002034F8023B88
:1044000013F4807F03D0C3F34323994209D00130D2
:104410003028F3D1002342F83130044810BCFFF7B4
:10442000F7BE10BC704700BFF00000206401002000
:1044300038B50246FFF7AAFF094C02F1080540B162
:1044400034F8153007495B0B03F5A273002041F8DF
:1044500023001046FFF7C2FF002324F8153038BDB3
:10446000F0000020006000402DE9FF41044617469F
:104470001D4621B34E4E00F1080836F818309B0750
:1044800006D5FFF783FF18B14A4804B0BDE8F081B4
:104490000023CDE900338DF80E308DF80F300DF18B
:1044A0000F020B4620460DF10E0102F0E3FB36F839
:1044B000183023F0020343F0010326F8183097B1B7
:1044C0003B4B3E787A6804F1080033F810108F07F0
:1044D0000CD5002AD8D133F8102022F01C0242EA71
:1044E000860223F81020CDBB3348CEE721F020010F
:1044F000C904C90C23F81010002AECD0032EC3D82D
:1045000017782EB92D4A07F5A27142F82160E2E72B
:10451000BA0002F1804202F5C04241EA4731D2F8C6
:1045200010C52CF0030CC2F810C5D2F810C52CF43D
:104530004F3C2CF4407CC2F810C5D2F810E54FEA8D
:10454000042C0CF47C5C4EEA064E4CEA0E0C41F056
:10455000200123F81010C2F810C5BCE7D5E90067A8
:104560002046FFF73BFF002EBED0114D2B689E4228
:1045700004D16B689F4201D100220AE010480DF17E
:104580000F01FFF71FFE0C4B98427FF47EAF9DF8A2
:104590000F2045F8326005EBC20308345F6035F840
:1045A000143043EA422343F4807325F814309BE728
:1045B000F00000200400AD0B0000AD0B00600040D7
:1045C00064010020F0B5044685B0154619B3334E9A
:1045D00000F1080736F81720930703D4FFF7D6FE3B
:1045E000002858D112F01C0F02D04B78012B52D06A
:1045F00001238DF80F300023CDE900134A1C8B1CDA
:1046000020460DF10F0102F035FB36F8173043F06C
:10461000030326F8173015B9214805B0F0BD1F4E29
:1046200004F1080736F81700830734D595F800C061
:104630006146890020F0200001F18041C00401F5AD
:10464000C041C00C26F817000023C1F810356A7865
:10465000002AE1D0D1F81035AD7823F4991323F472
:10466000F853C1F81035D1F810E5230203F47C5358
:10467000120402F4403243EA0E0313432A0502F403
:10468000801240EA4C30134340F0200026F8170017
:10469000C1F81035C0E70348BFE700BFF0000020B5
:1046A0000000AD0B0400AD0B014BC3E902017047E4
:1046B000F000002008B50246FFF768FE38B1054B50
:1046C0000548083233F812305B0B0B7008BD034805
:1046D000FCE700BFF00000200000AD0B0400AD0BB4
:1046E00038B50F4C94F87850BDB96022294604F1D2
:1046F000100002F046FD0620FDF780FF094B0A4836
:10470000C3F87C51D3F87C214FF00042C3F8042356
:10471000012384F87830636738BD0448FCE700BFA4
:10472000F0000020006000400000AD0B0500AD0B64
:10473000034B93F87800003818BF0120704700BF82
:10474000F000002001460148FFF762BD6001002033
:1047500001460148FFF736BD6001002037B5044629
:10476000FFF714FE04F108021E4B33F81230E8B1D3
:1047700013F002051AD15B0B9A0002F1804000F59C
:10478000C24002F1804202F5C04205600068D2F8E2
:10479000100540F00100C2F8100529B1012202FA0B
:1047A00003F3114AC2F8043303B030BDC3F38203EC
:1047B000042B12D0052B12D001A80194FFF7D8FDCD
:1047C000019BD0F81015D94001F0010102312046BB
:1047D00003B0BDE8304002F094BA0321F7E70221AC
:1047E000F5E700BFF00000200060004008B5024679
:1047F000FFF7CCFDC0B102F108010E4B33F81130C8
:10480000990711D45B0B01229A409B000A4903F1DE
:10481000804303F5C043C1F80823D3F8102522F0E4
:104820000302C3F8102508BDBDE80840002110466A
:1048300002F067BAF0000020006000400E4B00F16B
:10484000080213B533F81230DB07044611D5FFF721
:10485000CDFF2046FFF7ECFD01A80194FFF788FD8E
:10486000019B03F5E073022240F82320034802B0C5
:1048700010BD0348FBE700BFF00000200000AD0BB7
:104880000400AD0B2DE9F04F644B654865490026E7
:1048900087B0012234461D6835B1D0F80453154263
:1048A0001EBF1C601D68164304338B424FEA420250
:1048B000F1D1DFF86C81D8F87C31002B00F09180C9
:1048C0004FF0A043D3F820250492C3F82025D3F855
:1048D00020280592C3F8202800270DF110097B013C
:1048E00000934FF0010A49E0009B4F4A94FAA4F468
:1048F000B4FA84F41C4404F10803E00832F81330DD
:10490000039404F007020AFA02FC19F8002022EAD4
:104910000C0209F8002003A8C3F382059908FFF7E9
:1049200027FD039A02F5E0724B0750F82220AB46B0
:10493000C2F3014229D520465946D5B2FFF730FDD2
:1049400003A80394FFF714FD039B03F5E07350F8ED
:104950002330C3F301439D4207D10021204602F0DA
:10496000D0F92946204602F0CCF903A80394FFF7BA
:10497000FFFC039B0AFA03F3C0F8203559F82740DF
:10498000002CB1D1CFB90127A9E7022A0CBF03211E
:1049900002212046019202F0B4F9032D04D0019ABD
:1049A000022A06D1012DE0D159462046FFF7F8FC36
:1049B000DBE7032AD9D1022DF5E7C8F87C41D8F806
:1049C0007C311A494FF0A043D3F820250492C3F854
:1049D0002025D1F820350593C1F8203513437FF405
:1049E0007BAF012416B907B0BDE8F08F96FAA6F3A5
:1049F000B3FA83F304FA03F29B0003F1804303F557
:104A0000C04326EA0206D3F81005D3F81015C0F308
:104A10000520C1F30141FFF7C3FCE3E7006100405B
:104A20000060004020610040F000002000030050C2
:104A300010B5114C114A1249032323616361114BD4
:104A4000A261E3614FF4806323620023A362636287
:104A5000E36222660C4A6266E01D1022A2662367AA
:104A6000E366636702F095FB0849204602F091FB7C
:104A70002023A37110BD00BFC00E00209A7E00004D
:104A8000A37E00009F1100208F110020A77E000050
:104A90002DE9F84F234F4FF0180B14460BFB007213
:104AA0000646936A556AAB42884634D8D2F820A0AD
:104AB000AAEB050909F1FF32944211D84FF0180909
:104AC00006FB09933B44224658684146284402F0BD
:104AD00037FB09FB06762C4474620120BDE8F88F91
:104AE00013449C421BD800FB0BBBBB444A46DBF87B
:104AF00004002C44284402F023FBB4EB0A0406D043
:104B0000DBF80400224608EB090102F019FB18202B
:104B100000FB0676E0E7013B5B1BA342CED2002000
:104B2000DCE700BFC00E002070B5164B182400FB58
:104B300004451D4404FB00331646DC6A012C0ED0EC
:104B4000022C18D0E4B9284602F0EAF8864204D8CC
:104B50003246284602F0EDF83446204670BD28461D
:104B600002F0DEF88642344628BF04462246284634
:104B700002F0DFF8F1E72846BDE8704002F0F6B831
:104B80000024EAE7C00E0020034B182202FB00338A
:104B90009A6A586A801A7047C00E00200E4B70B592
:104BA00053F82040013053F82060A64200D870BD71
:104BB000D4E900352846984765B1EB6830B1002844
:104BC000B8BF4042FF28A8BFFF2018705A7842F0B3
:104BD00001025A700834E8E72476000070B50546F3
:104BE00010B90024204670BD0378002BF9D00E4C7C
:104BF0000E4EB44208D10C4CB442F2D0204602F022
:104C0000E6F850B91834F7E7204602F0E0F810B1A2
:104C10002368AB42E6D01834EBE721682846FBF75F
:104C2000DCFB0028EED1DDE740720000A07200003E
:104C30002DE9F04786B0054600AF0E464FF0200341
:104C4000EFF3118883F31288BFF36F8F00F04EFEED
:104C5000042D96BF2C4B2D4B53F825302C49E9469B
:104C60008AB06A464FF0000AD361032382F82430E9
:104C7000284BC2F820A0C2E90515044642F8103FAF
:104C8000254853464FF4295101F01EFECD467EB112
:104C9000F369C3F308035BB1204B7B6102233B61E3
:104CA0001D48534607F110024FF4825101F00CFEEB
:104CB0002CB1204602F0E7F808B1037803B9184890
:104CC000184BE9468AB06A46C2E90534032382F8E4
:104CD0002030154BD06142F8103F00230E484FF4AE
:104CE000095101F0F1FD3146CD462846FFF750F954
:104CF00088F31188BFF36F8F2046FEF7CBF8183783
:104D0000BD46BDE8F08700BF3C760000AE7E0000E7
:104D1000C47E00000500000170740000EC7E0000FD
:104D2000BC7E00000D7F00000400000108B50B4BA5
:104D3000012202201A70FFF731FF01F019F801F08B
:104D400008FE0320FFF72AFF00F064F9FBF758FB89
:104D5000034A137B23F00103137308BD9F15002042
:104D6000B807002008B50348034A0021121A02F0D0
:104D700038F808BD60020020A415002070B500239B
:104D800086B00122CDE90423114E124D01930F226A
:104D9000CDE902321049182303FB005506EBC0167B
:104DA0004FF4A072044602FB00110C4B00953046F4
:104DB00000F0D4F8737B0A482C75013423F0040307
:104DC00000EBC4247373EE606C6006B070BD00BF6E
:104DD00038070020680F0020A81C0020CD500000DC
:104DE000E81D002080B52E4BA6B083F308882D4D1A
:104DF0002D4E6B692D4F43F4007300246B61E0234B
:104E000085F82230EC772C766C76AC7685F82040ED
:104E10006B6A43F4E0236B6285F82340FDF7AEFF35
:104E2000FDF772FB4FF0FF33AB62EB62FEF7D8F891
:104E3000FEF746F8FCF718FD40F20113ADF82430F8
:104E400006ABB360CDE91F44229401F0BFFF2046BA
:104E5000FFF7A4FE0120164DFFF7A0FE00F098FC1E
:104E6000144BF5610593012313490094CDE90343E5
:104E70004FF480623B46CDE90144284600F06EF8CD
:104E80006A7B064622F0040228466A7302F05DF847
:104E90002046FFF773FF3A4631462846FDF76EFC81
:104EA000E825002000ED00E0680F00202D4D0000F7
:104EB000B80700206F7F0000A818002070B50E4BC7
:104EC0000E4CA34201D3002070BDD3E9040141EA96
:104ED000000212F003020BD1DD689A61AA4201D1EF
:104EE0002033EEE79E690E60013299610144F5E7D7
:104EF0006FF01500E8E700BFE8010020E80100209E
:104F000037B50C464FF02005EFF3118185F3128879
:104F1000BFF36F8F85695DB125602B688361C369BD
:104F20000133C361002081F31188BFF36F8F11E05B
:104F300052EA030C03D125606FF00B00F3E7CDE9D3
:104F400000230246083000F079FB18B9024B9B6839
:104F50005B69236003B030BD680F00202DE9FF417D
:104F60000E9E0673042646730D9E867300F1580547
:104F7000D61DC0E916550C9A002526F00706C0E993
:104F80000655C0E919168560C573C56602920B9A6D
:104F9000019201EB06080A9A009242460446FDF788
:104FA000D1FB054B65659B6803B11B6F23674046CA
:104FB00004B0BDE8F08100BF680F0020F0B587B0F5
:104FC00000270597109F04970F9F03970E9F029746
:104FD000DDE912650D9F01970C9F00970446FFF7CE
:104FE000BDFFB5F1FF3F08BFB6F1FF3F05D055EA61
:104FF000060305D1204600F0C5FA204607B0F0BDF3
:10500000034932462B4604F1180000F02BFDF4E76B
:105010006B6F00002DE9F043294C2A4D87B02646DE
:10502000AE4204F130040FD300F0C6F9244CDFF88F
:1050300098904FF4004640F2E737AC4220D307B0D7
:10504000BDE8F04300F088BB54F8043C059354F8E5
:10505000103C049354F8143C039354F8183C029306
:1050600054F81C3C019354F8203C009354E90C0183
:1050700054E90A23FFF772FF54F8303C5E65CEE72F
:10508000636A5A1C0DD023EAE37300213846C3FB40
:10509000060151EAC333D4F8008004D1404600F041
:1050A00071FA3034C9E74FF47A720023FBF728F81D
:1050B00002460B4608F11800494600F0D3FCF0E721
:1050C000E8010020E80100206B6F000008B50B4CE0
:1050D0000B4D4FF02002EFF3118382F31288BFF3E0
:1050E0006F8F01F0D1FF2B78A06113B9FDF712FA91
:1050F000EFE7FDF765F80028EBD1F7E7680F002030
:105100009F1500202DE9F341044617461E464FF037
:105110002003EFF3118883F31288BFF36F8FC36806
:10512000324A6BB180689168884219D057EA060309
:1051300018D188F31188BFF36F8F6FF00F000CE068
:10514000916891F90E1021610133E3609368A360C7
:1051500088F31188BFF36F8F002002B0BDE8F081A3
:105160002169F0E791F90E1090F90E309942A8BF2D
:1051700019466FF07E029142B8BF11468B422EDD78
:1051800001F08AFE0546CDE90076194822464146DF
:1051900000F054FA0028E0D04FF02003EFF311861E
:1051A00083F31288BFF36F8F236821699C420AD072
:1051B0004BB193F90E309942A8BF19466FF07E03A8
:1051C0009942B8BF1946A06801F066FE00B945B122
:1051D0000748314600F0DEF86FF00A00BDE7002511
:1051E000D1E786F31188BFF36F8FF5E7680F0020D2
:1051F000A015002038B583680446002B32D01C4A25
:105200009268934231D1DA7B013ADA73C368012B99
:1052100005D9013BC36000F09FFA002038BD4FF074
:105220002003EFF3118583F31288BFF36F8F0169B9
:10523000806801F031FE204601F0F8FEA06058B110
:1052400090F90E2022610022826701F07EFE09485B
:10525000294600F09FF8DEE7E06085F31188BFF390
:105260006F8FD8E76FF01500D8E74FF0FF30D5E724
:10527000680F0020A015002038B504464FF0200329
:10528000EFF3118583F31288BFF36F8F01F0CEFE29
:1052900048B10022826701F058FE29460548BDE862
:1052A000384000F077B8D4E902329A4218BF01338F
:1052B000A360F2E7A115002013B54FF02004EFF32F
:1052C000118184F31288BFF36F8F846844B1013C6D
:1052D000846081F31188BFF36F8F002002B010BD8E
:1052E00052EA030406D181F31188BFF36F8F6FF088
:1052F0000F00F3E7CDE900230246024800F09EF9D3
:10530000ECE700BFA115002038B5074D2C6854B15B
:10531000FEF734FE054B04441C6128680021BDE8FB
:10532000384001F0C1BE38BD980F0020680F002042
:10533000F8B504460D464FF02003EFF3118783F3D1
:105340001288BFF36F8F104E00214FF4004C40F2D3
:10535000E730316100234FF47A72E4FB0C01FAF775
:10536000CFFE002C094B0ADC1860094BB0681D60A9
:10537000FFF7CAFF87F31188BFF36F8FF8BD0228CC
:10538000B8BF0220F0E700BF680F0020980F002090
:10539000940F002049B9EFF3058030B9054BDA6965
:1053A0009B689A4201D0FDF77FB981F31188BFF362
:1053B0006F8F7047680F00204FF02003EFF31181CB
:1053C00083F31288BFF36F8F044B9A68D37B013B42
:1053D000D37381F31188BFF36F8F7047680F00207C
:1053E00038B502460C480D4D01F0A9FD044600B940
:1053F000EC68AB684AB95A7BD20606D1A26922B9D9
:10540000DA897F2A01D9EB6138BD9C4202D020465F
:10541000FFF77AFFEC61F7E7880F0020680F0020A4
:1054200070B590F90D20437B002A014604DA03F0A1
:105430007F03437301F04BFD4B7B154A63F07F0301
:105440004B73D2E9083402F12005AB421BD0D3B133
:1054500091F90E6093F90E0086420FD0801B002850
:105460000CDD5868C1E90030016059609068431A4A
:105470005842BDE870405841FFF7B2BFA34202D086
:105480001B68002BE6D1C1E9005421605162EDE7B1
:10549000680F002038B54FF02003EFF3118583F338
:1054A0001288BFF36F8F174B174A9C6811688C42A4
:1054B00007D12046FFF728FF85F31188BFF36F8FD0
:1054C00038BD00211160114A1268C2B1E2897F2AF9
:1054D00015D8627BD20612D10D4A94F90E101268CB
:1054E00091420CDB0B4A944209D01A69824203DCD8
:1054F0002046FFF795FFDCE7121A1A61DCE700226D
:10550000FBE700BF680F0020900F0020980F0020DD
:10551000940F00203807002070B490F90D20437BD1
:10552000002A2ADBDA0628D1826932BB144A63F0EA
:105530007F034373D2E9083402F12005AB4217D050
:10554000B3B190F90E6093F90E108E420BD0891B07
:10555000002908DD5A68C0E900321060586070BC4C
:105560000020FFF73DBFA34202D01B68002BEAD109
:10557000C0E9005420605062F1E770BC704700BF82
:10558000680F002010B54FF02002EFF3118482F372
:105590001288BFF36F8F427B510704D484F31188C4
:1055A000BFF36F8F10BD22F004024273FFF7B4FF08
:1055B00021460248BDE81040FFF7ECBEA2150020CE
:1055C00008B590F90D20437B002A014604DA03F068
:1055D0007F03437301F07BFC044B9868431A5842E5
:1055E0005841BDE80840FFF7FBBE00BF680F002030
:1055F0002DE9F041064615461C464FF02003EFF317
:10560000118783F31288BFF36F8F01F0D0FC87F30B
:105610001188BFF36F8FB4F1FF3F08BFB5F1FF3FB3
:1056200008D02A46234606F118000349BDE8F04198
:1056300000F018BABDE8F0816B6F000010B5074BA1
:105640009868074B0C4618601146DDE90223FFF706
:10565000CFFF2046BDE81040FDF726B8680F0020B8
:10566000900F0020F8B504464FF02003EFF31186A9
:1056700083F31288BFF36F8F437BDA0649B233D1CD
:1056800082698ABB03F07F03437301F020FC437BF4
:10569000174A817363F07F034373104650F8203F2D
:1056A00083421BD0D3B1576A93F90E50A94210D050
:1056B0006D1A002D0DDD5A68C4E9003214605C607B
:1056C0000120FFF78DFE012086F31188BFF36F8F55
:1056D000F8BDBB4202D01B68002BE5D1536AC4E978
:1056E00000031C605462EBE7A1730020ECE700BFED
:1056F000680F002070B50446183001F0AFFC4FF081
:105700002003EFF3118683F31288BFF36F8F94F9B0
:105710000D20637B002A05DA03F07F0363732046C4
:1057200001F0D5FB0B4D637BA86843F01003637356
:10573000031B58425841FFF753FE86F31188BFF30D
:105740006F8FAB68A34203D1BDE8704001F0EDBBA1
:1057500070BD00BF680F002010B54FF02003EFF3BD
:10576000118483F31288BFF36F8F084B9A68D37B41
:105770000133D3730020FFF733FE84F31188BFF3A6
:105780006F8FBDE8104001F0D0BB00BF680F002054
:10579000044B002103F12002C3E908220846FFF769
:1057A000C7BD00BF680F0020F8B54FF02003EFF32E
:1057B000118583F31288BFF36F8F1A498868437B82
:1057C00003F07F03437301F082FB8B685A7B08462A
:1057D00062F07F025A7350F8202F82421CD0DAB157
:1057E0004F6A93F90E6092F90E40A6420FD0A41BA7
:1057F000002C0CDD5168C3E900210B6053600120CF
:10580000FFF7EEFD2846BDE8F840FCF74DBFBA4271
:1058100002D01268002AE6D14A6AC3E90002136086
:105820004B62ECE7680F002050EA01032DE9F041DC
:1058300005460E4603D1FFF7B7FF002033E06FF0B7
:105840000104241A4FF0FF3363EB0103012C73F1C1
:10585000000302DA01F042FC44194FF02003EFF399
:10586000118883F31288BFF36F8F104F104BB86805
:105870001860FFF7A5FEB8680E492A46334618306F
:1058800000F0F0F8BA68537B43F0100353734046BE
:10589000FCF70AFF01F022FC201A63EB0303012846
:1058A00073F10003C9DBBDE8F08100BF680F002081
:1058B000900F00206B6F0000B1F1FF3F08BFB0F107
:1058C000FF3F08B506D1084B9868FFF713FF4FF06C
:1058D000FF3008BDFFF7A8FF4FF47A7380FB030386
:1058E000C00B40EA4340F4E7680F0020014B986882
:1058F000704700BF680F00202DE9F04104464FF0CB
:105900002003EFF3118683F31288BFF36F8F437B7D
:105910001A0705D586F31188BFF36F8FBDE8F081B4
:1059200023F0200242F00801D20920D14173A3687C
:1059300013B1204601F0D3FA04F1180001F08EFBF8
:1059400004F158074FF00008A56DBD4200D0B5B96D
:105950000120FFF745FD104B9B68A342DAD1EFF31E
:105960000583002BD6D13046FCF79EFED2E703F02C
:105970005F0343F00803437301F0A9FAD7E7284611
:1059800001F0ADFA05F1180001F068FBC5F8788068
:105990002846FFF7C1FDD7E7680F002008B5064885
:1059A000064A0749121A01F01EFABDE80840054AE6
:1059B0000549064801F017BA000000205C020020EB
:1059C000AC80000000000000AC800000000000205F
:1059D000034B1B680BB9FEF7D1BA0020704700BF1C
:1059E0009C0F0020104B10B51C689C4208BF00247F
:1059F000FFF7EEFFA4B1D4E904321B1A62EBE070AA
:105A0000B3F1004F70F100020ADA0028ACBF18466B
:105A10000020064B1B6913B19842A8BF184610BD61
:105A20006FF00040F5E700BF6C010020680F002018
:105A300030B5036868B10A4A5268904209D043B150
:105A4000D3E90421D0E90445121941EB0501C3E96A
:105A50000421426813605A600023C0E9003330BD5E
:105A60006C010020B3F1FF3F08BFB2F1FF3FF8B572
:105A700004461F46154667D081604FF02003EFF3C0
:105A8000118683F31288BFF36F8F6FF00102531BEF
:105A90004FF0FF3C6CEB0703002B1BDB2B4BD3E9D8
:105AA0000013521A6CEB0303551B63EB0703012D24
:105AB00073F10002BCBF01250023C0E90453244850
:105AC000D0E9003C834218D1C4E9000CCCF8004076
:105AD000446026E0FFF77CFF013547F100072D18F1
